{
  "contractName": "LoyaltyPoints",
  "abi": [
    {
      "inputs": [],
      "stateMutability": "nonpayable",
      "type": "constructor"
    },
    {
      "anonymous": false,
      "inputs": [
        {
          "indexed": true,
          "internalType": "address",
          "name": "to",
          "type": "address"
        },
        {
          "indexed": false,
          "internalType": "uint256",
          "name": "amount",
          "type": "uint256"
        }
      ],
      "name": "PointsIssued",
      "type": "event"
    },
    {
      "anonymous": false,
      "inputs": [
        {
          "indexed": true,
          "internalType": "address",
          "name": "from",
          "type": "address"
        },
        {
          "indexed": false,
          "internalType": "uint256",
          "name": "amount",
          "type": "uint256"
        }
      ],
      "name": "PointsRedeemed",
      "type": "event"
    },
    {
      "anonymous": false,
      "inputs": [
        {
          "indexed": true,
          "internalType": "address",
          "name": "from",
          "type": "address"
        },
        {
          "indexed": true,
          "internalType": "address",
          "name": "to",
          "type": "address"
        },
        {
          "indexed": false,
          "internalType": "uint256",
          "name": "amount",
          "type": "uint256"
        }
      ],
      "name": "PointsTransferred",
      "type": "event"
    },
    {
      "anonymous": false,
      "inputs": [
        {
          "indexed": true,
          "internalType": "address",
          "name": "user",
          "type": "address"
        }
      ],
      "name": "UserRegistered",
      "type": "event"
    },
    {
      "inputs": [
        {
          "internalType": "address",
          "name": "",
          "type": "address"
        }
      ],
      "name": "isUserRegistered",
      "outputs": [
        {
          "internalType": "bool",
          "name": "",
          "type": "bool"
        }
      ],
      "stateMutability": "view",
      "type": "function",
      "constant": true
    },
    {
      "inputs": [],
      "name": "owner",
      "outputs": [
        {
          "internalType": "address",
          "name": "",
          "type": "address"
        }
      ],
      "stateMutability": "view",
      "type": "function",
      "constant": true
    },
    {
      "inputs": [
        {
          "internalType": "address",
          "name": "",
          "type": "address"
        }
      ],
      "name": "pointsBalance",
      "outputs": [
        {
          "internalType": "uint256",
          "name": "",
          "type": "uint256"
        }
      ],
      "stateMutability": "view",
      "type": "function",
      "constant": true
    },
    {
      "inputs": [],
      "name": "registerUser",
      "outputs": [],
      "stateMutability": "nonpayable",
      "type": "function"
    },
    {
      "inputs": [
        {
          "internalType": "address",
          "name": "to",
          "type": "address"
        },
        {
          "internalType": "uint256",
          "name": "amount",
          "type": "uint256"
        }
      ],
      "name": "issuePoints",
      "outputs": [],
      "stateMutability": "nonpayable",
      "type": "function"
    },
    {
      "inputs": [
        {
          "internalType": "uint256",
          "name": "amount",
          "type": "uint256"
        }
      ],
      "name": "redeemPoints",
      "outputs": [],
      "stateMutability": "nonpayable",
      "type": "function"
    },
    {
      "inputs": [
        {
          "internalType": "address",
          "name": "to",
          "type": "address"
        },
        {
          "internalType": "uint256",
          "name": "amount",
          "type": "uint256"
        }
      ],
      "name": "transferPoints",
      "outputs": [],
      "stateMutability": "nonpayable",
      "type": "function"
    },
    {
      "inputs": [
        {
          "internalType": "address",
          "name": "user",
          "type": "address"
        }
      ],
      "name": "getPointsBalance",
      "outputs": [
        {
          "internalType": "uint256",
          "name": "",
          "type": "uint256"
        }
      ],
      "stateMutability": "view",
      "type": "function",
      "constant": true
    }
  ],
  "bytecode": "0x608060405234801561001057600080fd5b5033600260006101000a81548173ffffffffffffffffffffffffffffffffffffffff021916908373ffffffffffffffffffffffffffffffffffffffff160217905550610b22806100616000396000f3fe608060405234801561001057600080fd5b50600436106100885760003560e01c80638da5cb5b1161005b5780638da5cb5b14610113578063da20569e14610131578063e707f36f1461014d578063e92e92e71461017d57610088565b8063163f75221461008d57806325ca4cff146100bd578063326f823f146100ed5780634d3820eb14610109575b600080fd5b6100a760048036038101906100a29190610780565b610199565b6040516100b49190610916565b60405180910390f35b6100d760048036038101906100d29190610780565b6101b9565b6040516100e49190610991565b60405180910390f35b610107600480360381019061010291906107a9565b6101d1565b005b610111610365565b005b61011b61048e565b60405161012891906108fb565b60405180910390f35b61014b600480360381019061014691906107a9565b6104b4565b005b61016760048036038101906101629190610780565b6105e7565b6040516101749190610991565b60405180910390f35b610197600480360381019061019291906107e5565b61062f565b005b60016020528060005260406000206000915054906101000a900460ff1681565b60006020528060005260406000206000915090505481565b806000803373ffffffffffffffffffffffffffffffffffffffff1673ffffffffffffffffffffffffffffffffffffffff168152602001908152602001600020541015610252576040517f08c379a000000000000000000000000000000000000000000000000000000000815260040161024990610971565b60405180910390fd5b806000803373ffffffffffffffffffffffffffffffffffffffff1673ffffffffffffffffffffffffffffffffffffffff16815260200190815260200160002060008282546102a09190610a13565b92505081905550806000808473ffffffffffffffffffffffffffffffffffffffff1673ffffffffffffffffffffffffffffffffffffffff16815260200190815260200160002060008282546102f591906109bd565b925050819055508173ffffffffffffffffffffffffffffffffffffffff163373ffffffffffffffffffffffffffffffffffffffff167f8368079d4813055221156198c714ea6a6742cfcec7c979383b0085e1cc738dc0836040516103599190610991565b60405180910390a35050565b600160003373ffffffffffffffffffffffffffffffffffffffff1673ffffffffffffffffffffffffffffffffffffffff16815260200190815260200160002060009054906101000a900460ff16156103f2576040517f08c379a00000000000000000000000000000000000000000000000000000000081526004016103e990610951565b60405180910390fd5b60018060003373ffffffffffffffffffffffffffffffffffffffff1673ffffffffffffffffffffffffffffffffffffffff16815260200190815260200160002060006101000a81548160ff0219169083151502179055503373ffffffffffffffffffffffffffffffffffffffff167f54db7a5cb4735e1aac1f53db512d3390390bb6637bd30ad4bf9fc98667d9b9b960405160405180910390a2565b600260009054906101000a900473ffffffffffffffffffffffffffffffffffffffff1681565b600160008373ffffffffffffffffffffffffffffffffffffffff1673ffffffffffffffffffffffffffffffffffffffff16815260200190815260200160002060009054906101000a900460ff16610540576040517f08c379a000000000000000000000000000000000000000000000000000000000815260040161053790610931565b60405180910390fd5b806000808473ffffffffffffffffffffffffffffffffffffffff1673ffffffffffffffffffffffffffffffffffffffff168152602001908152602001600020600082825461058e91906109bd565b925050819055508173ffffffffffffffffffffffffffffffffffffffff167f5522eea310695242e9a97820729914e053a3ea3ab980666463a3e6b7f4d080f1826040516105db9190610991565b60405180910390a25050565b60008060008373ffffffffffffffffffffffffffffffffffffffff1673ffffffffffffffffffffffffffffffffffffffff168152602001908152602001600020549050919050565b806000803373ffffffffffffffffffffffffffffffffffffffff1673ffffffffffffffffffffffffffffffffffffffff1681526020019081526020016000205410156106b0576040517f08c379a00000000000000000000000000000000000000000000000000000000081526004016106a790610971565b60405180910390fd5b806000803373ffffffffffffffffffffffffffffffffffffffff1673ffffffffffffffffffffffffffffffffffffffff16815260200190815260200160002060008282546106fe9190610a13565b925050819055503373ffffffffffffffffffffffffffffffffffffffff167fc37df5d14f305277c1289e9a188a097cda6684189c95f785feb056cb77a8c9108260405161074b9190610991565b60405180910390a250565b60008135905061076581610abe565b92915050565b60008135905061077a81610ad5565b92915050565b60006020828403121561079257600080fd5b60006107a084828501610756565b91505092915050565b600080604083850312156107bc57600080fd5b60006107ca85828601610756565b92505060206107db8582860161076b565b9150509250929050565b6000602082840312156107f757600080fd5b60006108058482850161076b565b91505092915050565b61081781610a47565b82525050565b61082681610a59565b82525050565b60006108396013836109ac565b91507f55736572206e6f742072656769737465726564000000000000000000000000006000830152602082019050919050565b60006108796017836109ac565b91507f5573657220616c726561647920726567697374657265640000000000000000006000830152602082019050919050565b60006108b96013836109ac565b91507f496e73756666696369656e7420706f696e7473000000000000000000000000006000830152602082019050919050565b6108f581610a85565b82525050565b6000602082019050610910600083018461080e565b92915050565b600060208201905061092b600083018461081d565b92915050565b6000602082019050818103600083015261094a8161082c565b9050919050565b6000602082019050818103600083015261096a8161086c565b9050919050565b6000602082019050818103600083015261098a816108ac565b9050919050565b60006020820190506109a660008301846108ec565b92915050565b600082825260208201905092915050565b60006109c882610a85565b91506109d383610a85565b9250827fffffffffffffffffffffffffffffffffffffffffffffffffffffffffffffffff03821115610a0857610a07610a8f565b5b828201905092915050565b6000610a1e82610a85565b9150610a2983610a85565b925082821015610a3c57610a3b610a8f565b5b828203905092915050565b6000610a5282610a65565b9050919050565b60008115159050919050565b600073ffffffffffffffffffffffffffffffffffffffff82169050919050565b6000819050919050565b7f4e487b7100000000000000000000000000000000000000000000000000000000600052601160045260246000fd5b610ac781610a47565b8114610ad257600080fd5b50565b610ade81610a85565b8114610ae957600080fd5b5056fea26469706673582212204a407f1dcd4233d391a9ba4b9054ed8a3f2f8c621ddb99ee21d665c4fdfedc5764736f6c63430008000033",
  "immutableReferences": {},
  "source": "// SPDX-License-Identifier: MIT\r\npragma solidity ^0.8.0;\r\n\r\ncontract LoyaltyPoints {\r\n    mapping(address => uint256) public pointsBalance;\r\n    mapping(address => bool) public isUserRegistered;\r\n\r\n    event PointsIssued(address indexed to, uint256 amount);\r\n    event PointsRedeemed(address indexed from, uint256 amount);\r\n    event PointsTransferred(address indexed from, address indexed to, uint256 amount);\r\n    event UserRegistered(address indexed user); // Event for user registration\r\n\r\n    // Optional: Owner of the contract\r\n    address public owner;\r\n\r\n    constructor() {\r\n        owner = msg.sender; // Set the contract creator as the owner\r\n    }\r\n\r\n    modifier onlyOwner() {\r\n        require(msg.sender == owner, \"Not authorized\");\r\n        _;\r\n    }\r\n\r\n    // Function to register a user\r\n    function registerUser() external {\r\n        require(!isUserRegistered[msg.sender], \"User already registered\");\r\n        isUserRegistered[msg.sender] = true;\r\n        emit UserRegistered(msg.sender); // Emit an event for logging\r\n    }\r\n\r\n    function issuePoints(address to, uint256 amount) external {\r\n        require(isUserRegistered[to], \"User not registered\");\r\n        pointsBalance[to] += amount;\r\n        emit PointsIssued(to, amount);\r\n    }\r\n\r\n    function redeemPoints(uint256 amount) external {\r\n        require(pointsBalance[msg.sender] >= amount, \"Insufficient points\");\r\n        pointsBalance[msg.sender] -= amount;\r\n        emit PointsRedeemed(msg.sender, amount);\r\n    }\r\n\r\n    function transferPoints(address to, uint256 amount) external {\r\n        require(pointsBalance[msg.sender] >= amount, \"Insufficient points\");\r\n        pointsBalance[msg.sender] -= amount;\r\n        pointsBalance[to] += amount;\r\n        emit PointsTransferred(msg.sender, to, amount);\r\n    }\r\n\r\n    // Optional: function to check points balance\r\n    function getPointsBalance(address user) external view returns (uint256) {\r\n        return pointsBalance[user];\r\n    }\r\n}\r\n",
  "sourcePath": "C:\\Users\\sajid\\Desktop\\SAJID Personal\\VCET\\Final Year\\blockchain\\loyalty-points-system\\contracts\\LoyaltyPoints.sol",
  "compiler": {
    "name": "solc",
    "version": "0.8.0+commit.c7dfd78e.Emscripten.clang"
  },
  "schemaVersion": "3.4.16",
  "updatedAt": "2024-10-10T14:40:16.590Z",
  "networkType": "ethereum",
  "devdoc": {
    "kind": "dev",
    "methods": {},
    "version": 1
  },
  "userdoc": {
    "kind": "user",
    "methods": {},
    "version": 1
  }
}